:100CB2004E65772050617373776F72643A005265A4
:100CC20074797065206E657720706173733A0045A0
:100CD20072726F72206E6F742074727565210020BB
:100CE200536176652050617373776F7264004F6C45
:100CF200642050617373776F72643A00506173734A
:100D0200206E6F7420747275652121002D003A00E7
:100D1200536176652054696D652100506C6561737D
:100D2200652077616B652075702100466972737466
:100D32002074696D650049206665656C20736C6579
:100D4200657079004C6173742074696D650041208F
:100D52006E69636520646179205E5F5E212E0043C7
:100D6200616E63656C28302920204E4F283129009E
:100D7200207C20004320207C200046207C2000464E
:100D820020207C20004465766963650031002020C4
:100D920053657474696E670032004F4E004F4646C9
:100DA20000300043682E50617373200054696D65F2
:100DB20000416C61726D00496E666F00416869683E
:100DC20069202E2E2E5E5F5E2E2E2E0044657665E5
:100DD2006C6F7065723A20416E685475616E2C209A
:100DE20046616365626F6F6B3A2056756F6E67205E
:100DF200447563205475616E2C2050686F6E653A9D
:100E02002030313638363931383738312C20536C6E
:100E12006F67616E3A2054696574206B69656D2055
:100E220074686F69206769616E206C6120746965FE
:100E320074206B69656D20737563206B686F652E16
:100E420000456E7465722070617373776F72643AD5
:100E52000020556E6C6F636B206465766963650074
:100E620050617373206E6F74207472756521212135
:100E7200005761726E696E67200057616974207451
:100E82006F207265747970653A00110E111B150A94
:100E92000E1100000A1F1F0E0400000103161C0899
:100EA200000004040404000000000A0A0A0A000008
:100EB200000015151515000000001515151200008B
:100EC20000000A0A0A04000000001B0E1115151189
:020ED2000E0A06
:101EF1000131000D23001F1C1F1E1F1E1F1F1E1F4F
:021F01001E1FA1
:0619F0008B0C8A0D890E2C
:1019F600E4F50F75100FAB0CAA0DA90E85108275B4
:101A060083001207FB603D7D017F01121C6F850F6D
:101A160011E511D39510501F1213C3BF4302C32201
:101A2600AB0CAA0DA90E8511827583001207FBFF68
:101A3600121F28051180DA050F05107F5E7E011240
:051A46001D8F80B2D3EA
:011A4B002278
:081908008D158B128A1389145E
:10191000E4F516121EDCEF14FFE516C39F502FAB43
:1019200012AA13A9148516827583001207FBFE8F75
:10193000827583001207FB851682758300120828C2
:101940008F82758300EE12082805161F80CBE515DF
:10195000D394095027AB12AA13A914851682758354
:10196000001207FBFFE516F582758300A3EF12084E
:0C19700028851682758300743012082848
:01197C002248
:08197D007B007A007956AF21CE
:061985008B0E8A0F891091
:10198B00AE078E11EEC394005004EFF404FFE4FE97
:10199B00EF75F00A84E5F02430AB0EAA0FA910AC5A
:1019AB00060E8C82758300120828EF75F00A84FFEF
:1019BB00D3940050DBE511C394005013AB0EAA0F68
:1019CB00A910AF060E8F82758300742D120828ABF9
:1019DB000EAA0FA910AF068F82758300E412082898
:0519EB00AD1102190816
:021D4B008F0DFA
:101D4D00E4F50EE50EC3950D5016D2B47F2C7E0131
:101D5D00121D8FC2B47F907E01121D8F050E80E380
:011D6D002253
:101D6E0075116EE511B46E071213C38F1180F4E571
:101D7E0011600BD2B47F647E00121D8FC2B4AF11FE
:011D8E002232
:0417E9007D017F08F7
:0417ED008F0D8D0EC1
:1017F100E4F510E50D700302187A121D6E8F0FEFDC
:1018010060F8E50EB40107AD0FAF10121C0AE51028
:10181100D39400500AE50FB44305121F5AD322E5B1
:101821000FB4431D151074342510F8E4F6050DC3EB
:10183100740D950DFD7F02121C6FE4FF121F2880AD
:10184100B974342510F8A60FC3740D950DFD7F02F0
:10185100121C6FAF0F121F28E50E70167F64FE1267
:101861001D8FC3740D950DFD7F02121C6F7F2A120F
:0A1871001F28150D05100217F4C31F
:01187B00224A
:101A96007510007511007512347513087B007A00F5
:021AA600794C79
:061AA8008B0D8A0E890F70
:101AAE00E4FFEFC395135025AB10AA11A9128F8234
:101ABE007583001207FBFEAB0DAA0EA90F8F827560
:0E1ACE0083001207FB6E6002C3220F80D5D387
:011ADC0022E7
:061B5D008B0D8A0E890FBA
:101B6300EFC39408502AEF75F008A42440FF121F16
:101B730016E4F510AB0DAA0EA90F8510827583002C
:101B83001207FBFF121F280510E510C3940840E459
:051B93007F80021F1617
:1015E4007B007A00793E121EDCEF64084E70030221
:1015F4001697121F5A7BFF7A0C79B2121CF8E4F585
:101604000CE50C2405FD7F02121C6FE4FF121F2859
:10161400050CE50CC3940840E81217E9784C7C00EB
:101624007D007B007A00793412098B121F5A7BFFEC
:101634007A0C79C0121CF8E4F50CE50C2405FD7F46
:1016440002121C6FE4FF121F28050CE50CC394085A
:1016540040E81217E9121A96500D7B007A0079348B
:10166400E4FF121D228014121F5A7BFF7A0C79D1D9
:10167400121CF87F03121D4B0215F6121F5A7F032A
:10168400121F287BFF7A0C79E1121CF87FB87E0BBD
:03169400121D8F95
:011697002230
:1014E600121F78121F5A7BFF7A0C79F0121CF8E44F
:1014F600F50CE50C2405FD7F02121C6FE4FF121F9C
:1015060028050CE50CC3940840E8E4FD7F08121793
:10151600ED75100075110075123E7513087B007A83
:10152600007934121AA840030215D0121F5A7BFF05
:101536007A0C79B2121CF8E4F50CE50C2405FD7F53
:1015460002121C6FE4FF121F28050CE50CC3940859
:1015560040E81217E9784C7C007D007B007A007920
:101566003412098B121F5A7BFF7A0C79C0121CF8B1
:10157600E4F50CE50C2405FD7F02121C6FE4FF1256
:101586001F28050CE50CC3940840E81217E9121A47
:101596009650237B007A007934E4FF121D22121F35
:1015A6005A7F03121F287BFF7A0C79E1121CF87F01
:1015B600B87E0B021D8F121F5A7BFF7A0C79D1124F
:1015C6001CF87F03121D4B021531121F5A7BFF7A3E
:0E15D6000C79FE121CF87F03121D4B0214E963
:10174100EF700F85482185324B85335585492285B8
:101751004A307F0C121F167D017F01121C6F121976
:101761007D7B007A007956121CF87BFF7A0D790E89
:10177100121CF87B007A007956AF4B1219857B0059
:101781007A007956121CF87BFF7A0D790E121CF83B
:101791007B007A007956AF551219857B007A007962
:1017A10056121CF87D017F02121C6F7B007A0079B2
:1017B10056AF221219857B007A007956121CF87BEC
:1017C100FF7A0D7910121CF87B007A007956AF3040
:1017D1001219857B007A007956121CF87D017F0170
:0817E100121C6F7F0F021F169E
:1009A800750C01121F5A121E86121E9CE4FF1217A4
:1009B800417F14121F16750D20E50D644370030264
:1009C8000CAFE50DB43D02150CE50C7003750C0574
:1009D800E50DB42B02050CE50CB40603750C01E516
:1009E8000C24FE7003020AA0147003020B1E14707C
:1009F80003020B8D147003020C0B24046003020C19
:100A0800A9750D207D027F01121C6FE50D643D6004
:100A1800A8E50D642B60A2121D6E8F0DE50DB43094
:100A280003020C31E50DB443037F0122E50DB43D0B
:100A380004642B6084E50D24886008244B70061537
:100A48004880020548AF337E00EF7003EF7004EF73
:100A58004E700375251D74232532F8E6FF2401FD29
:100A6800E433FCE548B50507E4B50403754801E53A
:100A78004870028F487D017F01121C6F7B007A004D
:100A88007956AF481219857B007A007956121CF8FE
:100A98007F10121F16020A13750D207D057F0112A3
:100AA8001C6FE50D643D70030209C1E50D642B70F0
:100AB800030209C1121D6E8F0DE50DB43003020C3F
:100AC80031E50DB443037F0122E50DB43D07642BE6
:100AD80070030209C1E50D24886008244B700615CF
:100AE8003280020532E532700375320CE532B40DFE
:100AF800037532017D047F01121C6F7B007A007937
:100B080056AF321219857B007A007956121CF87F8D
:100B180010121F16808C750D207D087F01121C6F26
:100B2800E50D643D70030209C1E50D642B700302F5
:100B380009C1121D6E8F0DE50DB43003020C31E5AD
:100B48000DB443037F0122E50DB43D07642B700308
:100B58000209C1E50D24886008244B70061533800E
:100B68000205337D077F01121C6F7B007A007956DE
:100B7800AF331219857B007A007956121CF87F1062
:100B8800121F16809B750D207D027F02121C6FE5D7
:100B98000D643D70030209C1E50D642B7003020961
:100BA800C1121D6E8F0DE50DB43002807CE50DB4C9
:100BB80043037F0122E50DB43D07642B700302094E
:100BC800C1E50D24886008244B700615498002058C
:100BD80049E549B41803E4F549E549B4FF03754903
:100BE800177D017F02121C6F7B007A007956AF498E
:100BF8001219857B007A007956121CF87F10121F93
:100C080016808C750D207D057F02121C6FE50D6422
:100C18003D70030209C1E50D642B70030209C1127E
:100C28001D6E8F0DE50DB43021E4F547121CCE1270
:100C38001F5A7BFF7A0D7912121CF87F0C121F16AF
:100C48007FE87E03121D8F7F0122E50DB443037FE9
:100C58000122E50DB43D07642B70030209C1E50DBF
:100C680024886008244B7006154A8002054A7D04D2
:100C78007F02121C6FE54AB43C03E4F54AE54AB426
:100C8800FF03754A3B7B007A007956AF4A121985F3
:100C98007B007A007956121CF87F10121F16020C7E
:090CA80015750C010209C17F0061
:010CB1002220
:10169800750E01121F5A7BFF7A0D791D121CF87DF9
:1016A800037F02121C6F7BFF7A0D792D121CF8E55F
:1016B8000E641F601E1213C3EF64436069D2B47FC7
:1016C800C87E00121D8FC2B47FC87E00121D8F0510
:1016D8000E80DC121F5A7BFF7A0D7938121CF87FB6
:1016E800887E13121D8F121F5A7BFF7A0D791D12E7
:1016F8001CF87D047F02121C6F7BFF7A0D7946125D
:101708001CF8750E011213C3EF64436019D2B47F3D
:10171800C87E00121D8FC2B47FC87E00121D8F05BF
:101728000EE50EB41FDF121F5A7BFF7A0D79501297
:091738001CF87F107E27021D8FB2
:10000300750C01E555D395335018E54B95325012D5
:10001300E5219548500CE52295495006E530954A6F
:100023004017121F5A7BFF7A0D7961121CF8121DBB
:100033006EBF30028003020360121F5A121E861223
:100043001E9C85335585324B854821854922854A37
:10005300307D017F01121C6F7D017F02121C6F7FB7
:10006300011217417F14121F16750D20E50D64430D
:1000730070030203C3E50DB43D02150CE50C7003D8
:10008300750C05E50DB42B02050CE50CB4060375E0
:100093000C01E50C24FE70030201681470030201D5
:1000A300FA14700302027C14700302031B2404601D
:1000B300030203BD750D207D027F01121C6FE50D48
:1000C300643D60A8E50D642B60A2121D6E8F0DE5E3
:1000D3000DB43022E555D395335018E54B95325086
:1000E30012E5219548500CE52295495006E53095D7
:1000F3004A4003020360E50DB4430302036CE50DBC
:10010300B43D07642B700302006FE50D248860087B
:10011300244B7006152180020521AF557E00EF7038
:1001230003EF7004EF4E700375251D7423254BF800
:10013300E6FF2401FDE433FCE521B50507E4B5043E
:1001430003752101E52170028F217D017F01121CBE
:100153006F12197D7B007A007956121CF87F1012FA
:100163001F160200C1750D207D057F01121C6FE56E
:100173000D643D700302006FE50D642B70030200F4
:100183006F121D6E8F0DE50DB43022E555D39533F7
:100193005018E54B95325012E5219548500CE52255
:1001A30095495006E530954A4003020360E50DB4D6
:1001B300430302036CE50D24886008244B70061585
:1001C3004B8002054BE54B7003754B0CE54BB40DAF
:1001D30003754B017D047F01121C6F7B007A00794C
:1001E30056AF4B1219857B007A007956121CF87FA3
:1001F30010121F16020172750D207D087F01121C5B
:100203006FE50D643D700302006FE50D642B700311
:1002130002006F121D6E8F0DE50DB43022E555D32C
:1002230095335018E54B95325012E5219548500C03
:10023300E52295495006E530954A4003020360E5FF
:100243000DB4430302036CE50D24886008244B704E
:10025300061555800205557D077F01121C6F7B0033
:100263007A007956AF551219857B007A00795612B8
:100273001CF87F10121F168088750D207D027F02E7
:10028300121C6FE50D643D700302006FE50D642BD6
:10029300700302006F121D6E8F0DE50DB43022E561
:1002A30055D395335018E54B95325012E5219548B7
:1002B300500CE52295495006E530954A4003020368
:1002C30060E50DB4430302036CE50DB43D07642BF5
:1002D300700302006FE50D24886008244B70061537
:1002E3002280020522E522B41803E4F522E522B4B4
:1002F300FF037522177D017F02121C6F7B007A00BA
:100303007956AF221219857B007A007956121CF8B0
:100313007F10121F16020286750D207D057F0212C3
:100323001C6FE50D643D700302006FE50D642B70D7
:100333000302006F121D6E8F0DE50DB43026E555D7
:10034300D395335018E54B95325012E5219548501B
:100353000CE52295495006E530954A40077F0C127B
:100363001F16805CE50DB4430EE4F530F522F55518
:10037300F54BF5217F0122E50D24886008244B709D
:10038300061530800205307D047F02121C6FE530B4
:10039300B43C03E4F530E530B4FF0375303B7B0038
:1003A3007A007956AF301219857B007A007956129C
:1003B3001CF87F10121F16020325750C0102006F33
:1003C300121F5A1213C3EF64437003020522121E55
:1003D30086121E9C7F0C121F167D017F01121C6F5B
:1003E3007B007A007956AF481219857B007A007931
:1003F30056121CF87BFF7A0D790E121CF87B007ADB
:10040300007956AF321219857B007A007956121C97
:10041300F87BFF7A0D790E121CF87B007A0079566F
:10042300AF331219857B007A007956121CF87BFFD3
:100433007A0D7972121CF87B007A007956AF491253
:1004430019857B007A007956121CF87BFF7A0D79A7
:1004530010121CF87B007A007956AF4A1219857B7B
:10046300007A007956121CF87D017F02121C6F126C
:10047300197D7B007A007956121CF87BFF7A0D797F
:100483000E121CF87B007A007956AF4B1219857B4C
:10049300007A007956121CF87BFF7A0D790E121C34
:1004A300F87B007A007956AF551219857B007A00E4
:1004B3007956121CF87BFF7A0D7972121CF87B00B7
:1004C3007A007956AF221219857B007A0079561289
:1004D3001CF87BFF7A0D7910121CF87B007A0079E7
:1004E30056AF301219857B007A007956121CF8E555
:1004F30055653360030203C6E54B653260030203AF
:10050300C6E521654860030203C6E5226549600329
:100513000203C6E530654A60030203C61216987FDC
:0105230001D6
:0105240022B4
:101CCE00AD47E4FF121CA0AD4A7F01121CA0AD4926
:101CDE007F02121CA0AD487F04121CA0AD327F05FE
:0A1CEE00121CA0AD337F06021CA0FB
:101E86007F02121B218F497F01121B218F4AE4FF1B
:061E9600121B218F472200
:101E9C007F04121B218F487F05121B218F327F0676
:061EAC00121B218F3322FE
:071F0400121E247F0A7E007B
:0B1F0B00EF1FAC0670011E4C70F622A8
:101E0900D2B57F087E00121F0BC2B57F417E00123A
:0B1E19001F0BD2B57F147E00021F0BD0
:101DCE00E4FB7D08C2B5EBC313FBD2B530B50343BC
:0D1DDE0003807F047E00121F0BDDE9AF03C0
:011DEB0022D5
:021E2400AD0708
:101E26007B08C2B5ED1392B57F057E00121F0BD25B
:071E3600B5EDC313FDDBEB6A
:011E3D002282
:101B9800E4FAFF121E097FCC121E247F44121F0490
:101BA800121E097FCC121E247FBE121F04121DCEE6
:101BB800AA07121DCEEFFE7C00E42AFFEC3EC4F813
:0A1BC80054F0C8EFC4540F48F53D77
:011BD20022F0
:1010A900E4F50C7BFF7A0E79CC7F04121B5D1213D9
:1010B900C3EF646E60030212467D017F01121C6F4B
:1010C900121B987B007A007956AF3D1219857B0077
:1010D9007A007956121CF87FDF121F287BFF7A0DE0
:1010E9007976121CF8121E86121E9CE555D395338B
:1010F9005018E54B95325012E5219548500CE522E0
:1011090095495006E530954A400C7D067F01121C31
:101119006F7F04121F28E555B5331EE54BB532190B
:10112900E521B54814E522B5490FE530B54A0AE588
:101139000C7006121698750C017D097F01121C6F3F
:101149007B007A007956AF481219857B007A0079BD
:1011590056121CF87BFF7A0D790E121CF87B007A67
:10116900007956AF321219857B007A007956121C24
:10117900F87BFF7A0D790E121CF87B007A007956FC
:10118900AF331219857B007A007956121CF87D015C
:101199007F02121C6FAC3DE412072D7B667A6679DB
:1011A900E6783F12061DE4FBFAF9784212052C1283
:1011B90007618F3D7B007A0079561219857B007A89
:1011C900007956121CF87FDF121F28E53DD394637E
:1011D9007BFF40067A0D797C80047A0D7981121C97
:1011E900F8E4F558FB7A007956AF491219857B0066
:1011F9007A007956121CF87BFF7A0D7910121CF8C7
:101209007B007A007956AF4A1219857B007A0079FA
:1012190056121CF87BFF7A0D7910121CF87B007AA4
:10122900007956AF471219857B007A007956121C4E
:0D123900F81213C3EF646E70030210B722A9
:011246002285
:100ED400E5316003021003121F5A7D017F01121CC9
:100EE4006F7BFF7A0D7987121CF87D027F02121C3A
:100EF4006F7BFF7A0D798E121CF87D077F01121C1F
:100F04006F7BFF7A0D7990121CF87D0C7F02121C06
:100F14006F7BFF7A0D799A121CF8121D6EEF24D59F
:100F24007003020FFB24F9607024F57003021000B3
:100F340024FA7003020FF92412709C121F5A7D01C7
:100F44007F01121C6F7BFF7A0D799C121CF87D01C6
:100F54007F02121C6F7BFF7A0D798E121CF87D08BC
:100F64007F01121C6F7BFF7A0D799F121CF87D089C
:100F74007F02121C6F7BFF7A0D79A3121CF8121DDD
:100F84006EEF24CF600F24EE7003020ED42413708E
:100F9400EDC2B680E9D2B680E5121F5A7BFF7A0D06
:100FA40079A5121CF87BFF7A0D79AE121CF87D012D
:100FB4007F02121C6F7BFF7A0D798E121CF87D095B
:100FC4007F02121C6F7BFF7A0D799A121CF8121D96
:100FD4006EEF24CE601024EF7003020ED42412703E
:100FE400B81214E680B37F0F121F161209A87F0CE3
:100FF400121F1680A4D322753101800302109BE5D1
:1010040031640160030210A7121F5A7D017F01128F
:101014001C6F7BFF7A0D79B3121CF87D027F0212DC
:101024001C6F7BFF7A0D798E121CF87D077F0112ED
:101034001C6F7BFF7A0D79B9121CF87D0A7F0212AE
:101044001C6F7BFF7A0D799A121CF8121D6EEF2427
:10105400CE601B24F5604024FA6042241270A97FFC
:101064000F121F161200037F0C121F16809A121FF4
:101074005A1213C3EF6443608F7D017F02121C6F09
:101084007BFF7A0D79BE121CF87BFF7A0D79CE12A4
:1010940019F040DD02100CE4F531020EDBE4F53109
:0410A400020ED4C3A1
:0110A8002225
:10124700E4F509F50A121BD3121F78C2B4C2B6120D
:1012570010A97BFF7A0E7994E4FF121B5D7BFF7A5E
:101267000E798C7F02121B5D7BFF7A0E799C7F03C0
:10127700121B5D783E7C007D007B007A007920128E
:10128700098B7B007A00793E7D08E4FF121A4C1225
:1012970015E4021332121F5A7BFF7A0E7943121C90
:1012A700F8E5097018AF0B150BEF75F008A424A427
:1012B700F9740E35F0FA7BFF7F01121B5DE4F50828
:1012C700E5082405FD7F02121C6FE4FF121F2805A5
:1012D70008E508C3940840E87D107F02121C6F7F61
:1012E70001121F287D057F02121C6FE4FD7F081283
:1012F70017ED500302125675100075110075123E56
:101307007513087B007A007934121AA85028121F27
:101317005A7F03121F287BFF7A0E7953121CF87F1E
:10132700E87E03121D8F120ED45006750B040212AD
:101337009C75090180FE121F5A7BFF7A0E79621293
:101347001CF87F03121D4BE50BB4FF21E50AB4011E
:101357001C121F5A7BFF7A0E7973121CF87F021238
:101367001F287D017F01121C6FD2B480E7E50BF4C3
:101377007044E50A7040121F5A7BFF7A0E797C127F
:101387001CF875081E7B007A007956AF081219857C
:101397007D087F02121C6F7B007A007956121CF8B9
:1013A7007FE87E03121D8F1508E508D3940050D5FA
:0C13B700750A01750B04121F5A02129CEB
:101F16008F80C2A5C2A6D2A77F057E00121D8FC2E2
:021F2600A722F0
:101F28008F80D2A5C2A6D2A77F017E00121D8FC2C4
:021F3800A722DE
:101C6F008D12EFC394014006EFD394024013E51297
:101C7F00C394014007E512D3941040057F017512FC
:101C8F0001E512BF0104247F800224BFFF121F163B
:011C9F002222
:101BD3007F057E00121D8F7F3C121F167F017E0042
:101BE300121D8F7F0C121F167F017E00121D8F7F27
:101BF30001121F167F0A7E00121D8F7F06121F1609
:071C03007F017E00021D8F2E
:0C1F5A007F01121F167F147E00021D8FF5
:101CF8008B0F8A108911AB0FAA10A9111207E2FFE6
:101D08006017121F2874012511F511E43510F5101C
:0A1D18007F057E00121D8F80DD2282
:101F3A00E4FDFCC3ED9FEC9E50070DBD00010C8033
:011F4A00F2A4
:011F4B002273
:101D8F00E4FDFCC3ED9FEC9E5015E4FBFA0BBB008A
:0F1D9F00010AEB647D4A70F50DBD00010C80E474
:011DAE002212
:0B1E58007E00121E63C2B17F047E00FA
:0C1E6300EF4E6007EF1F70F81E80F522A4
:0E1F4C00D2B1121E5FD2B07F047E00021E636F
:101EB200D2B0D2B1121E5FC2B0121E5FC2B17F0495
:051EC2007E00021E631A
:101EC700C2B0D2B1121E5FD2B0121E5FC2B17F0480
:051ED7007E00021E6305
:101DAF00E4FDD2B0D2B17F02FE121E63A2B0E433C3
:0E1DBF00FD7F02121E58BD01037F00227F012E
:011DCD0022F3
:021DEC00AD0741
:101DEE00E4FBEDA803088002C333D8FC3392B0D2D3
:0A1DFE00B17F04121E580BBB08E869
:011E080022B7
:101C3D00E4FDFCD2B0D2B17F787E00121E63A2B05B
:101C4D00E433FB7F787E00121E63C2B1EDBB010849
:101C5D0025E0FD430501800325E0FD0CBC08D4AF54
:011C6D000571
:011C6E002253
:031F7800021F4CF9
:021ADD008F1266
:101ADF00D200121EB27FA0121DEC121DAFEF24FF19
:101AEF009200AF12121DEC121DAFEF24FF920012E5
:101AFF001EB27FA1121DEC121DAFEF24FF92001238
:101B0F001C3D8F13121DAFEF24FF9200121EC7AFA3
:011B1F0013B2
:011B200022A2
:041C0A008F118D1297
:101C0E00D200121EB27FA0121DEC121DAFEF24FFE8
:101C1E009200AF11121DEC121DAFEF24FF9200AF18
:0F1C2E0012121DEC121DAFEF24FF9200021EC711
:101D22008F0D8B0E8A0F8910AB0EAA0FA910120706
:101D3200E2FD6014AF0D050D121C0A74012510F5A9
:091D420010E4350FF50F80E022DA
:0A1A4C008F0C8D0D8B0E8A0F891090
:101A5600E4F511E50D6027AF0C121ADDEFF46018FE
:101A6600AF0C121ADDAB0EAA0FA910AE1105118E1E
:101A760082758300EF120828050C150D80D5AB0E74
:101A8600AA0FA9100511851182758300E4020828A2
:1013C300C290D291D292D29320940D7F107E271295
:1013D3001F3A3094FD7F312220950D7F107E271216
:1013E3001F3A3095FD7F322220960D7F107E271203
:1013F3001F3A3096FD7F332220970D7F107E2712F0
:101403001F3A3097FD7F2F22D290C291D292D2936E
:1014130020940D7F107E27121F3A3094FD7F3422D3
:1014230020950D7F107E27121F3A3095FD7F3522C0
:1014330020960D7F107E27121F3A3096FD7F3622AD
:1014430020970D7F107E27121F3A3097FD7F782259
:10145300D290D291C292D29320940D7F107E271204
:101463001F3A3094FD7F372220950D7F107E27127F
:101473001F3A3095FD7F382220960D7F107E27126C
:101483001F3A3096FD7F392220970D7F107E271259
:101493001F3A3097FD7F2D22D290D291D292C293E0
:1014A30020940D7F107E27121F3A3094FD7F432234
:1014B30020950D7F107E27121F3A3095FD7F302235
:1014C30020960D7F107E27121F3A3096FD7F3D2216
:1014D30020970D7F107E27121F3A3097FD7F2B2216
:0314E3007F6E22F7
:091F6600D2B2D2B3C2B3C2B2225E
:091F6F00D2B2C2B3D2B3D2B22245
:101E6F00E4FEEF3392B3D2B2C2B2EF25E0FF0EBE63
:061E7F0008F0D2B2C2B26D
:011E8500223A
:101E3E00E4FFFED2B2A2B39200EF25E0FFA200E4CF
:091E4E00334207C2B20EBE08EADD
:011E57002268
:041CA000AB05AA07DF
:101CA400EBFF7E007C007D0A12085CEB75F00A8471
:101CB400C454F04DFB121F667FD0121E6FAF021288
:0A1CC4001E6FAF03121E6F021F6FA8
:021B2100AD070E
:101B2300121F667FD0121E6FAF05121E6F121F6643
:101B33007FD1121E6F121E3E7E00121F6FAB07EE87
:101B4300C4F854F0C868FEEFC4540F48FF7C007D0E
:091B53000A12084AEB540F2FFF9F
:011B5C002266
:100525000207CDE86480F8E933E83360110460F030
:10053500ED33EC337009E8FCE9FDEAFEEBFF22043C
:1005450060DED3EB9FEA9EE99DE8C2E78CF0C2F737
:1005550095F0400CE8CCF8E9CDF9EACEFAEBCFFB03
:1005650012079885D0F05804700320D5B3E80470BD
:10057500075002B2D50207D792D5EC0460F7E4CC58
:10058500C0E0C398F8603B94186008400DD0E0FBCC
:100595000207AFE4FBFAC9FC8028E830E406E4C9A9
:1005A500FBE4CAFCE830E305E4C9CACBFCE8540720
:1005B5006010F8C3E913F9EA13FAEB13FBEC13FC2B
:1005C500D8F130F52FC3E49CFCEF9BFFEE9AFEEDCE
:1005D50099FDD0E0FBEF4E4D4C701222DB03020774
:1005E500D4EC2CFCEF33FFEE33FEED33FDED30E7BD
:1005F500EB0207AFEF2BFFEE3AFEED39FDD0E0FB46
:1006050050130BBB00030207D7ED13FDEE13FEEFEE
:0806150013FFEC13FC0207AF18
:10061D00EC4D6011E8497017ED33EC3304600DE4D7
:10062D00FCFFFEFD22E933E8330470F80207CD121A
:10063D00079858046009E4CC24815006285009021B
:10064D0007D72840030207D4C0E0EB4A7044B980B5
:10065D0006D0E0FB0207C3EF4E701CBD8008EBFF18
:10066D00EAFEE9FD80EBE98DF0A4FEE5F002070658
:10067D00E9CDF9EAFEEBFFEF89F0A4FCE5F0CE89B8
:10068D00F0A42EFFE435F0CD89F0A42DFEE435F075
:10069D008067EF4E7005BD80D780C3EF8BF0A4ACA3
:1006AD00F0EE8BF0A42CFCE435F0F8EF8AF0A42CDE
:1006BD00E5F038FCE433CB8DF0A42CFCE5F03BF8F1
:1006CD00EE8AF0A42CFCE5F038F8E433CF89F0A4E1
:1006DD002CFCE5F038CF3400CE89F0A42FFFE5F0E7
:1006ED003EFEE433C98DF0A42EFEE5F039CD8AF03F
:1006FD00A42FFFE5F03EFEE43DFD33D0E0FB5007B7
:10070D000BBB000F0207D7EC2CFCEF33FFEE33FED3
:06071D00ED33FD0207AF01
:1007230075F020800E75F010800575F0087D007E51
:10073300007F003392D530D5031208B1EC3340105B
:10074300EF33FFEE33FEED33FDEC33FCD5F0ED225A
:0E075300E5F0247EA2D513CC92E7CDCEFF2296
:10076100EDD2E7CD33EC3392D524814006E4FFFE90
:10077100FDFC22FCE4CFCECDCC24E0501174FF80EF
:10078100EDC3CC13CCCD13CDCE13CECF13CF04708C
:07079100F030D5DE0208B1D3
:10079800E9D2E7C933E833F892D5EDD2E7CD33ECA7
:0707A80033FC5002B2D52220
:1007AF00EC30E7100FBF000C0EBE00080DBD0004AB
:1007BF000BEB6014A2D5EB13FCED92E7FD2274FF57
:1007CF00FCFDFEFF22E480F8A2D574FF13FC7D80B0
:0307DF00E480EFC4
:0300000002187C67
:0C187C00787FE4F6D8FD75815A0218C38D
:1007E200BB010689828A83E0225002E722BBFE0215
:0907F200E32289828A83E4932248
:1007FB00BB010CE58229F582E5833AF583E02250B3
:10080B0006E92582F8E622BBFE06E92582F8E222FC
:0D081B00E58229F582E5833AF583E4932216
:10082800F8BB010DE58229F582E5833AF583E8F006
:10083800225006E92582C8F622BBFE05E92582C8B2
:02084800F2229A
:10084A00EF8DF0A4A8F0CF8CF0A428CE8DF0A42EC2
:02085A00FE227C
:10085C00BC000BBE0029EF8DF084FFADF022E4CC80
:10086C00F875F008EF2FFFEE33FEEC33FCEE9DEC49
:10087C00984005FCEE9DFE0FD5F0E9E4CEFD22ED8F
:10088C00F8F5F0EE8420D21CFEADF075F008EF2FD9
:10089C00FFED33FD4007985006D5F0F222C398FDCA
:0508AC000FD5F0EA2267
:0E08B100C3E49FFFE49EFEE49DFDE49CFC2258
:1008BF00E709F60870FA8046E709F20870FA803EF9
:1008CF0088828C83E709F0A370FA807EE309F6082B
:1008DF0070FA8076E309F20870FA806E88828C8352
:1008EF00E309F0A370FA806289828A83E0A3F60895
:1008FF0070FA805689828A83E0A3F20870FA804AE0
:10090F0080D280FA80C680D4806580F280318010DA
:10091F0080A680EA809A80A880DA80E280CA80313F
:10092F0089828A83ECFAE493A3C8C582C8CCC583B5
:10093F00CCF0A3C8C582C8CCC583CC70E9800D8923
:10094F00828A83E493A3F60870F9ECFAA9F0EDFB21
:10095F002289828A83ECFAE0A3C8C582C8CCC583FA
:10096F00CCF0A3C8C582C8CCC583CC70EA80DD8922
:10097F00828A83E493A3F20870F980CE88F0ED2485
:10098F0002B4040050C4F582EB2402B4040050BA40
:09099F00232345822390090F7304
:101EDC00E4FFFE1207E2600C0FEF70010E09E970CF
:051EEC00F20A80EF2264
:10188800021247E493A3F8E493A34003F68001F21D
:1018980008DFF48029E493A3F85407240CC8C33361
:1018A800C4540F4420C8834004F456800146F6DF30
:1018B800E4800B0102040810204080901EF1E47EB1
:1018C800019360BCA3FF543F30E509541FFEE49325
:1018D800A360010ECF54C025E060A840B8E493A3EC
:1018E800FAE493A3F8E493A3C8C582C8CAC583CA17
:1018F800F0A3C8C582C8CAC583CADFE9DEE780BECF
:011F030000DD
:00000001FF
