S00C0000434F44452E73726563FD
S113000012C024C023C022C021C020C01FC01EC0F3
S11300101DC01CC01BC01AC019C018C017C016C010
S113002015C014C013C011241FBECFE5D4E0DEBF39
S1130030CDBF12E0A0E6B0E0EAE4F7E102C005902B
S11300400D92A435B107D9F710DB7DCBD9CF3E9AF9
S113005085E886B90895369A3699FECF84B195B16C
S113006008958FEF87BB14BA85BB81BB089518161A
S113007019066CF420E030E0E7EEF3E03197F1F795
S113008000C000002F5F3F4F28173907A9F70895D4
S1130090C09A85E38A95F1F70000C098089598B353
S11300A0937C98BB84FDC29A85FDC39A86FDC49A4D
S11300B088230CF4C59AECDF0895CF93C82FEFDFA3
S11300C08C2F8295807FEBDFC598CF910895C198DE
S11300D0F4DF0895C19AF1DF089583E3F8DF82E342
S11300E0F6DF88E2F4DF8CE0F2DF86E0F0DF81E027
S11300F0EEDF83E090E0BBDF089581E0E8DF83E09A
S113010090E0B5DF089580E8E2DF0895623031F0D1
S1130110633031F0613031F490E405C094E103C000
S113012094E501C090E08058890FD1DF0895682FCD
S113013080E0ECDF0895CF93DF93EC01888188237E
S113014029F02196C7DF89918111FCCFDF91CF91EE
S11301500895CF93DF93CDB7DEB728970FB6F89401
S1130160DEBF0FBECDBF19821A821B821C821D8284
S11301701E821F82188640E1BE016F5F7F4F8BDABB
S1130180CE010196D8DF28960FB6F894DEBF0FBED5
S1130190CDBFDF91CF9108950F931F93CF93DF933A
S11301A0CDB7DEB728970FB6F894DEBF0FBECDBF2C
S11301B08C0119821A821B821C821D821E821F825C
S11301C018864AE0BE016F5F7F4F65DA0A30110579
S11301D02CF489818A8380E389831B82CE01019672
S11301E0AADF28960FB6F894DEBF0FBECDBFDF910D
S11301F0CF911F910F91089511B88CE080B90895A3
S113020094EA96BF06B607FEFDCF83B984E886BF9D
S113021006B607FEFDCF91B1987F81E0983109F0D1
S113022080E00895CF93C82F8F3F41F08C2FE8DFF3
S1130230811106C0CF5FCF3FC9F703C080E001C082
S11302408C2FCF91089583B984E886BF06B607FE44
S1130250FDCF91B1987F81E0983209F480E0089550
S113026084E886BF06B607FEFDCF83B10895CF9319
S1130270DF93E82FD62FCDEC4C9FC12D1124C695CA
S1130280C695C695C295C07F50E09A01ADECBCEC12
S1130290F6D99C0136952795369527953695279559
S11302A0C901880F991F220F331F220F331F220FFA
S11302B0331F280F391F421B530BC42B8E2FA0DF73
S11302C08D2FC1DF8C2FBFDF84E986BFDF91CF91F3
S11302D00895CF93DF93C82FD62F92DF8D2FB3DFEE
S11302E081E08C0F8DDFBCDF94E996BFDF91CF9165
S11302F00895EF92FF920F931F93CF93DF93EC0136
S11303007B018A0162E080EDE4DF888361E080EDB7
S1130310E0DFF701808360E080EDDBDFF8018083BC
S1130320988196FF03C09F71988302C09F7398833E
S1130330DF91CF911F910F91FF90EF900895EF926D
S1130340FF920F931F93CF93DF937C018B01EA01FC
S113035065E080EDBEDFF701808364E080EDB9DF06
S1130360F801808366E080EDB4DF8883DF91CF916C
S11303701F910F91FF90EF900895EF920F931F93A9
S1130380CF93DF93D82F142FC22F462F65E080ED33
S11303906EDF412F64E080ED6ADF4D2F66E080ED73
S11303A066DF4C2F62E080ED62DF402F61E080ED7C
S11303B05EDF4E2D60E080ED5ADFDF91CF911F911B
S11303C00F91EF900895CF9381E0B1DE8DE790E037
S11303D0B2DEC1E080E27EDE8C2F24DF882331F0A0
S11303E0C1E0C80F90E0B5DEC111F4CFCF910895FC
S11303F0CF93C82F82958F70805D6CDE8C2F8F70A9
S1130400805D68DECF910895982F92959F70990F23
S1130410292F220F220F920F8F70890F0895CF93E7
S1130420DF9300D01F92CDB7DEB7AE014D5F5F4FB3
S1130430BE016E5F7F4FCE01019681DF8A81D8DFD6
S11304408FE248DE8981D4DF8FE244DE8B81D0DF06
S11304500F900F900F90DF91CF910895CF93DF937A
S113046000D01F92CDB7DEB7AE014D5F5F4FBE0126
S11304706E5F7F4FCE0101963CDF8981B9DF8AE34D
S113048029DE8A81B5DF8AE325DE8B81B1DF0F9017
S11304900F900F90DF91CF910895CF93DF9300D009
S11304A01F92CDB7DEB7AE014D5F5F4FBE016E5FE9
S11304B07F4FCE0101961DDF89819ADF8AE30ADE30
S11304C08A8196DF0F900F900F90DF91CF9108955E
S11304D060E088E01BDEC2DF61E088E017DE9FDFBA
S11304E008950F931F93CF93DF938B01883068F4A3
S11304F0880F880F880F805CEADDE801085F1F4FD2
S11305008991E8DDC017D107D9F780E8E0DDDF91F4
S1130510CF911F910F9108950F931F93CF93DF9362
S1130520FC012785222371F18C01DFE0C1EFCD0F9F
S113053060E080E0EBDDDC1798F093B3892F8270E4
S113054091FD06C020C093B3892F827091FF1BC018
S1130550F801EC0FF11D8081BDDDCF5FDC1798F74A
S1130560DF5FFFEB25E484E0F15020408040E1F7B9
S113057000C00000F801ED0FF11D80818111D6CF7C
S113058081E001C081E0DF91CF911F910F91089527
S1130590CF93DF93EC0180E090E0B0D89983888317
S11305A0DF91CF910895CF93DF93EC0184E090E045
S11305B0A5D8813024E0920718F49983888304C075
S11305C080E092E099838883DF91CF9108950F931F
S11305D01F93CF93DF93EC018B0188E090E08ED8DA
S11305E09983888386E090E089D8F8019183808399
S11305F0288139812931310530F0CD9720F01982D5
S1130600188211821082DF91CF911F910F9108956A
S11306104F925F926F927F928F929F92AF92BF920E
S1130620CF92DF92EF92FF920F931F93CF93DF93BA
S113063000D000D000D0CDB7DEB75FDDAE014F5F94
S11306405F4FBE016D5F7F4FCE01029678DEAE0133
S11306504A5F5F4FBE016B5F7F4FCE01049649DE58
S11306608981D2DEC82E8A81CFDE182F8B81CCDE21
S1130670F82E8C81C9DED82E8D81C6DE082F43DD8D
S1130680CEDE81E054DD09DF80E0EE24E3940F2E1A
S1130690F7E14F2EF02D0F2EF8E68F2EF0E09F2E6F
S11306A0F02D0F2EFDE16F2EF02D7E2C0F2EFCE091
S11306B05F2EF02D03C0853009F45DC1823009F44A
S11306C0A2C030F4882359F0813009F45EC0F3CF1E
S11306D0833009F4D1C0843009F40FC1ECCF60E059
S11306E08E2D14DD812F90E0DC01A859BF4F5D01F0
S11306F03FC09A9920C0F394C11002C0F4016282F1
S11307008F2D90E0D501EC91F0E031968E179F0784
S113071009F4F72C60E080E0F9DC8F2D90E03CDDFB
S113072080E1D5DCBFE3EDE0F3E0B150E040F04020
S1130730E1F700C000009B991BC0FA94C11003C0EC
S1130740D40112966C92F11002C0F501F08060E0C1
S113075080E0DCDC8F2D90E01FDD80E1B8DCFFE37E
S11307602DE033E0F15020403040E1F700C00000BC
S11307709999BFCF8FE39DE0A3E081509040A040C2
S1130780E1F700C000008E2D99CF60E084E0BEDC6C
S11307902DC09A9915C01F5F1D3009F4172D60E014
S11307A083E0B4DC812F90E0F7DC80E190DCBFE3F0
S11307B0EDE0F3E0B150E040F040E1F700C00000AC
S11307C09B9914C0115009F4152D60E083E09EDC60
S11307D0812F90E0E1DC80E17ADC2FE33DE083E0EF
S11307E0215030408040E1F700C000009999D1CFFA
S11307F09FE3ADE0B3E09150A040B040E1F700C00A
S1130800000082E05BCF60E087E080DC28C09A993A
S113081012C0C39460E086E079DC8C2D90E0BCDCEF
S113082080E155DCEFE3FDE023E0E150F0402040BF
S1130830E1F700C000009B9912C0CA9460E086E012
S113084065DC8C2D90E0A8DC80E141DC3FE38DE0A9
S113085093E0315080409040E1F700C00000999946
S1130860D6CFAFE3BDE0E3E0A150B040E040E1F714
S113087000C0000083E022CF6E2D8E2D47DC30C0F7
S11308809A9916C0D394F8E1DF1201C0D12C6E2DD1
S113089080E03CDC8D2D90E07FDC80E118DC2FE3F0
S11308A03DE083E0215030408040E1F700C000008B
S11308B09B9916C0DA9497E19D1508F4D42C6E2DFB
S11308C080E024DC8D2D90E067DC80E100DCAFE388
S11308D0BDE0E3E0A150B040E040E1F700C000001B
S11308E09999CECFFFE32DE033E0F1502040304022
S11308F0E1F700C0000084E0E1CE61E084E006DCC2
S1130900E12C2EC09A9915C00F5F0C3309F40E2DFB
S113091061E083E0FBDB802F90E03EDC80E1D7DB0D
S11309208FE39DE0A3E081509040A040E1F700C038
S113093000009B9915C001500C3308F00BE361E0F3
S113094083E0E4DB802F90E027DC80E1C0DBBFE3C1
S1130950EDE0F3E0B150E040F040E1F700C000000A
S11309609999D0CF2FE33DE083E02150304080407F
S1130970E1F700C00000E12C2D2D4F2D612F8C2DAF
S1130980FCDCBBDB8CE0A3DB84E890E0D4DB2FE76A
S11309903FE482E1215030408040E1F700C0000094
S11309A080E026960FB6F894DEBF0FBECDBFDF9170
S11309B0CF911F910F91FF90EF90DF90CF90BF9058
S11309C0AF909F908F907F906F905F904F9008951D
S11309D0CF92DF92EF92FF920F931F93CF93DF9307
S11309E000D0CDB7DEB737DB9A83898386DB8CE80A
S11309F090E0A1DB81E09BDB8CE990E09CDBCE0105
S1130A000196D1DD0F2EEE24EA94F3E0FF2EF02DB3
S1130A1022DB8C016C01883E934030F461E083E07A
S1130A2075DB80E257DB03C061E083E06FDBC80164
S1130A30B3DB84E6C816D10418F485EE90E07BDBC2
S1130A4080EA90E078DB89819A81883E934030F493
S1130A5061E08CE05BDB80E23DDB03C061E08CE0C5
S1130A6055DB89819A8198DB9A9915C089819A818D
S1130A700196811524E0920719F09A83898302C0B4
S1130A801A8219828FE798E321E081509040204038
S1130A90E1F700C000009B9915C089819A810197F4
S1130AA0811524E0920718F49A83898302C0FA829C
S1130AB0E9828FE798E321E0815090402040E1F7FC
S1130AC000C000009999A4CF69817A8184E090E004
S1130AD01AD68FE39DE023E0815090402040E1F757
S1130AE000C000000ADB8CE0F2DA86EA90E023DB47
S1130AF08FE79FE422E1815090402040E1F700C05D
S1130B000000FBDA0F900F90DF91CF911F910F91AE
S1130B10FF90EF90DF90CF9008950F931F93CF93A2
S1130B20DF9300D000D0CDB7DEB786E090E09A83A3
S1130B3089831C821B82BE016D5F7F4FCE010196AB
S1130B4046DDDBDA8FEA90E0F6DA81E0F0DA8981DB
S1130B509A8122DB8AE3BEDA8B819C811DDB61E012
S1130B6081E0D4DA07E110E03CC09A991CC0898185
S1130B709A8101968831910519F09A83898302C07C
S1130B801A82198261E080E0C1DA89819A8104DBEA
S1130B9080E19DDA2FE38DE093E021508040904086
S1130BA0E1F700C000009B991CC089819A810197DC
S1130BB08831910518F49A83898302C01A830983C2
S1130BC061E080E0A3DA89819A81E6DA80E17FDA64
S1130BD02FE38DE093E0215080409040E1F700C086
S1130BE000009999C2CF2FE38DE093E0215080401B
S1130BF09040E1F700C0000061E084E087DA0BE395
S1130C0010E03CC09A991CC08B819C8101968C3366
S1130C10910518F49C838B8302C01C821B8261E0C3
S1130C2083E074DA8B819C81B7DA80E150DA2FE3B8
S1130C308DE093E0215080409040E1F700C0000037
S1130C409B991CC08B819C8101978C33910518F46E
S1130C509C838B8302C01C830B8361E083E056DAA0
S1130C608B819C8199DA80E132DA2FE38DE093E085
S1130C70215080409040E1F700C000009999C2CF14
S1130C803CDA8CE024DA84E890E055DA69817A81F0
S1130C9088E090E038D56B817C8186E090E033D5A4
S1130CA02FE78FE492E1215080409040E1F700C0AB
S1130CB000000F900F900F900F90DF91CF911F9134
S1130CC00F910895CF93DF93EC0182E090E016D565
S1130CD09C01215031092230310518F4998388830D
S1130CE004C081E090E099838883DF91CF910895D7
S1130CF0EF92FF920F931F93CF93DF9300D0CDB762
S1130D00DEB7CE010196DEDFF8D988EB90E013DA86
S1130D10EE24E394F12C02E010E042C09A9914C04E
S1130D2089819A8101968330910519F09A83898388
S1130D3002C0FA82E9822FE38DE093E021508040E3
S1130D409040E1F700C000009B9912C089819A810C
S1130D50019719F09A83898302C01A8309832FE3C8
S1130D608DE093E0215080409040E1F700C0000006
S1130D7089819A818130910519F0029741F010C060
S1130D8061E080E0C3D985EC90E0D5D909C086ED57
S1130D9090E0D1D961E080E0B9D987EE90E0CBD979
S1130DA09999BCCFAAD969817A8182E090E0ABD4C9
S1130DB088EF90E0C0D92FE78FE492E12150804082
S1130DC09040E1F700C0000098D90F900F90DF9198
S1130DD0CF911F910F91FF90EF900895FF920F9381
S1130DE01F93CF93DF9389D900E010E0C0E0F12C8A
S1130DF0D4E002C082D956C19A990FC0C43011F010
S1130E00CF5F01C0CF2D79D92FE38DE093E021503E
S1130E1080409040E1F700C000009B990FC0CC23B4
S1130E2011F0C15001C0CD2F68D92FE38DE093E0BC
S1130E30215080409040E1F700C00000C230E9F149
S1130E4028F4CC2351F0C13001F188C0C33009F437
S1130E504CC0C43009F461C081C055D980E091E030
S1130E606AD961E087E052D980E191E064D9999927
S1130E7075C02FE38DE093E0215080409040E1F76E
S1130E8000C00000999B81C071C03DD983E191E00D
S1130E9052D961E087E03AD980E191E04CD999993F
S1130EA05DC02FE38DE093E0215080409040E1F756
S1130EB000C00000999B82C076C025D982E291E0EF
S1130EC03AD961E087E022D980E191E034D9999957
S1130ED045C02FE38DE093E0215080409040E1F73E
S1130EE000C00000999B90C077C00DD981E391E0C8
S1130EF022D961E087E00AD980E191E01CD999996F
S1130F002DC02FE38DE093E0215080409040E1F725
S1130F1000C00000999B9AC085C0F5D88DE391E08C
S1130F200AD961E087E0F2D880E191E004D9999987
S1130F3015C02FE38DE093E0215080409040E1F70D
S1130F4000C00000999B90C09DC02FE38DE093E00A
S1130F50215080409040E1F700C000000F5F1F4F18
S1130F6001322EE4120709F047CF44CF8FE0AFD807
S1130F704FDB8CE0ACD88FE39DE023E081509040C0
S1130F802040E1F700C00000E9CFB7D88EE491E03B
S1130F90D2D88FEF99E628E1815090402040E1F7C4
S1130FA000C000007FC014DD8FE39DE023E081508A
S1130FB090402040E1F700C00000D0CF9ED88EE4DE
S1130FC091E0B9D88FEF99E628E181509040204014
S1130FD0E1F700C0000066C08FE39DE023E081508C
S1130FE090402040E1F700C000008FE070D895DD0C
S1130FF08CE06DD88FE39DE023E081509040204049
S1131000E1F700C00000AACF78D88EE491E093D82D
S11310108FEF99E628E1815090402040E1F700C02D
S1131020000040C08FE39DE023E0815090402040C9
S1131030E1F700C000005CDE8FE39DE023E0815017
S113104090402040E1F700C0000088CF56D88EE4DD
S113105091E071D88FEF99E628E1815090402040CB
S1131060E1F700C000001EC048D88EE491E063D8C8
S11310708FEF99E628E1815090402040E1F700C0CD
S1131080000010C040D88FE39DE023E081509040E1
S11310902040E1F700C0000089E591E03DDA8111CC
S11310A05DCF53CF80E090E0DF91CF911F910F91FE
S11310B0FF90089599991BC02FEB85E494E021508B
S11310C080409040E1F700C00000999929C015D8EC
S11310D087EF91E030D82FE78FE492E121508040F0
S11310E09040E1F700C0000008D881E308958FE143
S11310F09EE40197F1F700C000009A9B13C08FE1B2
S11311009EE40197F1F700C000009B9B0DC08FE1A6
S11311109EE40197F1F700C000009999E8CFCCCF85
S11311208FE6089585E7089584E608958F929F9247
S1131130AF92BF92CF92DF92EF92FF920F931F93E1
S1131140CF93DF93CDB7DEB728970FB6F894DEBF01
S11311500FBECDBF88E0E5E7F0E0DE011196019017
S11311600D928A95E1F7812C00E00F2EF5E0BF2E59
S1131170F02DC02E0F2EF7E59F2EF02D6894AA2493
S1131180A1F83BC0BAD782E092E0D5D7812F90E096
S113119003D887E092E0CFD781E0C9D78DE092E011
S11311A0CAD71A3009F083C0E92CFA2C01C07C019B
S11311B061E08AE0ABD724E6E216F10410F480E2A1
S11311C089D7C701E9D788E192E0B5D78FEF94E3D7
S11311D0ECE081509040E040E1F700C00000C7011E
S11311E00197EF2821F71A3009F4102F8FE097E2C6
S11311F00197F1F700C00000812E7FD78CE192E0C7
S11312009AD760E670E0802F6CD91B2D61E0812FA6
S11312107DD7802F5FD71F5F1D30C1F7FE01319648
S11312207F011B2DDD24D39445DF8133C9F1F70100
S113123091917F018913DC2C61E0812F67D78AE2C9
S113124049D7FFE32DE083E0F15020408040E1F7EF
S113125000C000001F5F1D3039F7D11013C04DD7F7
S11312608CE292E068D79FE7EFE4F2E19150E0402E
S1131270F040E1F700C0000011E0180D153008F44B
S1131280BBCF80CF3AD78AE392E055D72FE78FE4DC
S113129092E1215080409040E1F700C000009EDDC3
S11312A0EFE1FEE43197F1F700C000000BC08BEFD3
S11312B0880D843008F49ACF0F2EFBE3EF2EF12C27
S11312C0F02D76CF28960FB6F894DEBF0FBECDBFB3
S11312D0DF91CF911F910F91FF90EF90DF90CF900E
S11312E0BF90AF909F908F900895CF93DF93CDB729
S11312F0DEB72D970FB6F894DEBF0FBECDBFBE018B
S11313006B5F7F4FCE01039662D9CE010796DADC7C
S1131310CE0109963DD90F2EFCE37F2EF02D0F2E22
S1131320F8E1AF2EB12CF02D22242394312C412C42
S1131330CE01019638D9AE01435F5F4FBE01645FB1
S11313407F4FCE010B96D5D78B855ED8882E912CF6
S11313508C855AD8C82ED12C7ED6682E592EE82ECC
S1131360F92E999913C02FE789EA93E02150804020
S11313709040E1F700C00000D9DEBE016B5F7F4FF3
S1131380CE01039624D9CE0107969CDCBCD62D81D0
S11313903E818B819C81789E8001799E100D112461
S11313A0020F131F789CC001799C900D1124C80E64
S11313B0D91E0D32110510F4BC82AB828F81988541
S11313C0019709F0BAC0CE010996E2D82B813C817D
S11313D0729EA001739E500D11248D819E81840FF5
S11313E0951F892B19F4BC82AB8203C02C303105C4
S11313F050F1C801CC96C816D90628F488549340F5
S11314008C159D0558F089859A85892B39F01A86A3
S1131410198660E070E080E090E075D1C801CC9757
S11314208C159D05D8F188559240C816D906B0F19F
S113143089859A85892B91F53A862986B10180E0C0
S113144090E061D12BC0C801CC96C816D90688F0AB
S1131450885A9D4F8C159D0560F089859A85892B46
S113146009F4E4C01A86198660E070E080E090E038
S11314704AD1C801845F9C4FC816D90628F4885401
S113148093408C159D0550F089859A85892B31F4FC
S11314903A862986B10180E090E035D1C8018D9764
S11314A08C159D05B0F4035D1F4FC016D10688F45A
S11314B089819A81C296E816F90658F089859A8539
S11314C0892B39F01A86198660E070E080E090E09C
S11314D01AD18B819C818C30910518F42CE0342D29
S11314E002C024EF3FEF820F931F789E9001799EF4
S11314F0300D11248D819E81820F931F9C012D52EA
S113150031092C153D0508F070C08D96C816D90612
S113151008F06BC089819A81C297E816F90608F031
S113152064C089859A85892B09F063C03A86298627
S1131530B10180E090E0E7D058C08B819C81789E17
S1131540A001799E500D1124240F351F232B19F46B
S1131550BC82AB8202C00C97F8F0C016D10680F4AE
S1131560005D1240C016D10658F089859A85892BF2
S1131570E1F53A862986B10180E090E0C4D035C017
S113158089859A85892BB9F11A86198660E070E0FD
S113159080E090E0B8D029C0480120E3821A2DEF02
S11315A0920AC814D90428F4C016D10608F446C017
S11315B011C089859A85892B09F045C03A86298608
S11315C0B10180E090E09FD0C016D10670F0C8143D
S11315D0D90458F489859A85892B69F01A86198665
S11315E060E070E080E090E08ED089859A85892B58
S11315F011F0909A01C090988CE990E09CD588EE07
S1131600E81683E0F80618F485EE90E094D5862D6C
S1131610952DC2D594E6E916F10418F485EE90E010
S11316208AD589E492E087D553D782CEC801845FF6
S11316309C4FC816D90608F02BCF09C089859A8516
S1131640892BB9F60BC0C016D10678F6D2CFC801E3
S1131650CC978C159D0508F01BCF20CF3A862986A0
S1131660B10180E090E04FD0C0CFFBD436D5C4D5D3
S1131670EED48BE492E05FD5A6D63FD536DEA29FAA
S1131680B001B39FC001A39F01D0B29F700D811D13
S11316901124911D0895BB274A3031F4992322F473
S11316A0BDE2909581959F4F01C0BB27FB01552753
S11316B0AA27880F991FAA1FA41710F0A41B8395AB
S11316C05051B9F7A05DAA3308F0A95DA193009722
S11316D079F7B111B1931192CB0100C0DC01FC0187
S11316E0672F71917723E1F7329704C07C916D9352
S11316F070836291AE17BF07C8F30895A8E1B0E004
S113170042E050E005C012D0272F11C0DC01CB010C
S1131710FC01E199FECF06C0FFBBEEBBE09A319617
S11317200DB20D9241505040B8F70895262FE1991B
S1131730FECF9FBB8EBB2DBB0FB6F894E29AE19A05
S10D17400FBE01960895F894FFCF40
S113174A00000A1F1F0E0400001F1C1F1E1F1E1F5D
S113175A1F1E1F1E1F6F6F757564646464466F7560
S113176A6E643A004461204C757521004368696EC1
S113177A6820416E682073616E673A0041533A00EB
S113178A7C4144433A004461204C75752120004849
S113179A656E2047696F3A0043686F6E2063686517
S11317AA20646F3A004B657420686F7020202020F3
S11317BA202020202000202020202020202020203B
S11317CA202020202020005468656F2074686F69E7
S11317DA206769616E2020004461206C75752100C0
S11317EA4368696E682054686F69204769616E00AE
S11317FA4F4B004368696E6820416E682053616EDE
S113180A67004368696E6820546869657420426990
S113181A0043686F6E2063686520646F0054686FC4
S113182A6E672074696E20742F6720202000436835
S113183A6F207869752E2E2E0053616E20706861B0
S113184A6D207068617420747269656E20626F69B4
S113185A20416E685475616E2C2073616E20706825
S113186A616D20766F692063687563206E616E67A7
S113187A20626174207461742074686965742062DA
S113188A69207468656F2063756F6E6720646F20C2
S113189A616E682073616E672076612074686F696F
S11318AA206769616E2067697570206C696E6820AB
S11318BA686F61742074726F6E6720717561207429
S11318CA72696E6820626174207461742074686934
S11318DA65742062692E00446F69207869752E2E1A
S11318EA2E005175612000206C616E210043686FDF
S11318FA2074726F6E673A0028732900456E746506
S113190A722070617373776F72643A00536169204D
S113191A6D6174206B686175210044756E67206D72
S113192A6174206B68617521007C00526561647979
S107193A2E2E2E001B
S9030000FC
